{
  "_format": "hh-sol-artifact-1",
  "contractName": "BounceLotteryNFTPro",
  "sourceName": "contracts/BounceLotteryNFTPro.sol",
  "abi": [
    {
      "anonymous": false,
      "inputs": [
        {
          "indexed": true,
          "internalType": "uint256",
          "name": "index",
          "type": "uint256"
        },
        {
          "indexed": true,
          "internalType": "address",
          "name": "sender",
          "type": "address"
        }
      ],
      "name": "Bet",
      "type": "event"
    },
    {
      "anonymous": false,
      "inputs": [
        {
          "indexed": true,
          "internalType": "uint256",
          "name": "index",
          "type": "uint256"
        },
        {
          "indexed": true,
          "internalType": "address",
          "name": "sender",
          "type": "address"
        }
      ],
      "name": "Claimed",
      "type": "event"
    },
    {
      "anonymous": false,
      "inputs": [
        {
          "indexed": true,
          "internalType": "uint256",
          "name": "index",
          "type": "uint256"
        },
        {
          "indexed": true,
          "internalType": "address",
          "name": "sender",
          "type": "address"
        },
        {
          "components": [
            {
              "internalType": "address",
              "name": "provider",
              "type": "address"
            },
            {
              "internalType": "address",
              "name": "token0",
              "type": "address"
            },
            {
              "internalType": "uint256[]",
              "name": "tokenId0",
              "type": "uint256[]"
            },
            {
              "internalType": "uint256[]",
              "name": "amountTotal0",
              "type": "uint256[]"
            },
            {
              "internalType": "address",
              "name": "token1",
              "type": "address"
            },
            {
              "internalType": "uint256",
              "name": "amount1",
              "type": "uint256"
            },
            {
              "internalType": "uint256",
              "name": "nftType",
              "type": "uint256"
            },
            {
              "internalType": "uint256",
              "name": "maxPlayer",
              "type": "uint256"
            },
            {
              "internalType": "uint256",
              "name": "closeAt",
              "type": "uint256"
            },
            {
              "internalType": "uint256",
              "name": "revealAt",
              "type": "uint256"
            }
          ],
          "indexed": false,
          "internalType": "struct BounceLotteryNFTPro.Pool",
          "name": "pool",
          "type": "tuple"
        }
      ],
      "name": "Created",
      "type": "event"
    },
    {
      "anonymous": false,
      "inputs": [
        {
          "indexed": true,
          "internalType": "address",
          "name": "previousGovernor",
          "type": "address"
        },
        {
          "indexed": true,
          "internalType": "address",
          "name": "newGovernor",
          "type": "address"
        }
      ],
      "name": "GovernorshipTransferred",
      "type": "event"
    },
    {
      "anonymous": false,
      "inputs": [
        {
          "indexed": true,
          "internalType": "uint256",
          "name": "index",
          "type": "uint256"
        },
        {
          "indexed": true,
          "internalType": "address",
          "name": "sender",
          "type": "address"
        }
      ],
      "name": "UserClaimed",
      "type": "event"
    },
    {
      "inputs": [
        {
          "internalType": "address",
          "name": "creator_",
          "type": "address"
        }
      ],
      "name": "addCreator",
      "outputs": [],
      "stateMutability": "nonpayable",
      "type": "function"
    },
    {
      "inputs": [
        {
          "internalType": "uint256",
          "name": "",
          "type": "uint256"
        },
        {
          "internalType": "address",
          "name": "",
          "type": "address"
        }
      ],
      "name": "allPlayer",
      "outputs": [
        {
          "internalType": "uint256",
          "name": "",
          "type": "uint256"
        }
      ],
      "stateMutability": "view",
      "type": "function"
    },
    {
      "inputs": [
        {
          "internalType": "uint256",
          "name": "",
          "type": "uint256"
        },
        {
          "internalType": "address",
          "name": "",
          "type": "address"
        }
      ],
      "name": "allPlayerClaim",
      "outputs": [
        {
          "internalType": "bool",
          "name": "",
          "type": "bool"
        }
      ],
      "stateMutability": "view",
      "type": "function"
    },
    {
      "inputs": [
        {
          "internalType": "uint256",
          "name": "index",
          "type": "uint256"
        }
      ],
      "name": "bet",
      "outputs": [],
      "stateMutability": "payable",
      "type": "function"
    },
    {
      "inputs": [
        {
          "internalType": "uint256",
          "name": "index",
          "type": "uint256"
        },
        {
          "internalType": "uint256",
          "name": "m",
          "type": "uint256"
        }
      ],
      "name": "calcRet",
      "outputs": [
        {
          "internalType": "uint256",
          "name": "",
          "type": "uint256"
        }
      ],
      "stateMutability": "pure",
      "type": "function"
    },
    {
      "inputs": [
        {
          "internalType": "uint256",
          "name": "index",
          "type": "uint256"
        }
      ],
      "name": "claim",
      "outputs": [],
      "stateMutability": "nonpayable",
      "type": "function"
    },
    {
      "inputs": [
        {
          "internalType": "uint256",
          "name": "",
          "type": "uint256"
        }
      ],
      "name": "claimIdP",
      "outputs": [
        {
          "internalType": "uint256",
          "name": "",
          "type": "uint256"
        }
      ],
      "stateMutability": "view",
      "type": "function"
    },
    {
      "inputs": [
        {
          "components": [
            {
              "internalType": "address",
              "name": "provider",
              "type": "address"
            },
            {
              "internalType": "address",
              "name": "token0",
              "type": "address"
            },
            {
              "internalType": "uint256[]",
              "name": "tokenId0",
              "type": "uint256[]"
            },
            {
              "internalType": "uint256[]",
              "name": "amountTotal0",
              "type": "uint256[]"
            },
            {
              "internalType": "address",
              "name": "token1",
              "type": "address"
            },
            {
              "internalType": "uint256",
              "name": "amount1",
              "type": "uint256"
            },
            {
              "internalType": "uint256",
              "name": "nftType",
              "type": "uint256"
            },
            {
              "internalType": "uint256",
              "name": "maxPlayer",
              "type": "uint256"
            },
            {
              "internalType": "uint256",
              "name": "nShare",
              "type": "uint256"
            },
            {
              "internalType": "uint256",
              "name": "closeAt",
              "type": "uint256"
            },
            {
              "internalType": "uint256",
              "name": "revealAt",
              "type": "uint256"
            }
          ],
          "internalType": "struct BounceLotteryNFTPro.CreateReq",
          "name": "poolReq",
          "type": "tuple"
        }
      ],
      "name": "create",
      "outputs": [],
      "stateMutability": "nonpayable",
      "type": "function"
    },
    {
      "inputs": [
        {
          "internalType": "address",
          "name": "",
          "type": "address"
        }
      ],
      "name": "creator",
      "outputs": [
        {
          "internalType": "bool",
          "name": "",
          "type": "bool"
        }
      ],
      "stateMutability": "view",
      "type": "function"
    },
    {
      "inputs": [
        {
          "internalType": "uint256",
          "name": "",
          "type": "uint256"
        }
      ],
      "name": "curPlayerP",
      "outputs": [
        {
          "internalType": "uint256",
          "name": "",
          "type": "uint256"
        }
      ],
      "stateMutability": "view",
      "type": "function"
    },
    {
      "inputs": [
        {
          "internalType": "bytes32",
          "name": "key",
          "type": "bytes32"
        },
        {
          "internalType": "address",
          "name": "addr",
          "type": "address"
        }
      ],
      "name": "getConfig",
      "outputs": [
        {
          "internalType": "uint256",
          "name": "",
          "type": "uint256"
        }
      ],
      "stateMutability": "view",
      "type": "function"
    },
    {
      "inputs": [
        {
          "internalType": "bytes32",
          "name": "key",
          "type": "bytes32"
        }
      ],
      "name": "getConfig",
      "outputs": [
        {
          "internalType": "uint256",
          "name": "",
          "type": "uint256"
        }
      ],
      "stateMutability": "view",
      "type": "function"
    },
    {
      "inputs": [
        {
          "internalType": "bytes32",
          "name": "key",
          "type": "bytes32"
        },
        {
          "internalType": "uint256",
          "name": "index",
          "type": "uint256"
        }
      ],
      "name": "getConfig",
      "outputs": [
        {
          "internalType": "uint256",
          "name": "",
          "type": "uint256"
        }
      ],
      "stateMutability": "view",
      "type": "function"
    },
    {
      "inputs": [
        {
          "internalType": "uint256",
          "name": "index",
          "type": "uint256"
        },
        {
          "internalType": "address",
          "name": "target",
          "type": "address"
        }
      ],
      "name": "getPlayerStatus",
      "outputs": [
        {
          "internalType": "uint256",
          "name": "",
          "type": "uint256"
        }
      ],
      "stateMutability": "view",
      "type": "function"
    },
    {
      "inputs": [],
      "name": "getPoolCount",
      "outputs": [
        {
          "internalType": "uint256",
          "name": "",
          "type": "uint256"
        }
      ],
      "stateMutability": "view",
      "type": "function"
    },
    {
      "inputs": [],
      "name": "governor",
      "outputs": [
        {
          "internalType": "address",
          "name": "",
          "type": "address"
        }
      ],
      "stateMutability": "view",
      "type": "function"
    },
    {
      "inputs": [
        {
          "internalType": "address",
          "name": "_governor",
          "type": "address"
        },
        {
          "internalType": "address[]",
          "name": "creators_",
          "type": "address[]"
        }
      ],
      "name": "initialize",
      "outputs": [],
      "stateMutability": "nonpayable",
      "type": "function"
    },
    {
      "inputs": [
        {
          "internalType": "address",
          "name": "governor_",
          "type": "address"
        }
      ],
      "name": "initialize",
      "outputs": [],
      "stateMutability": "nonpayable",
      "type": "function"
    },
    {
      "inputs": [
        {
          "internalType": "uint256",
          "name": "index",
          "type": "uint256"
        },
        {
          "internalType": "address",
          "name": "sender",
          "type": "address"
        }
      ],
      "name": "isWinner",
      "outputs": [
        {
          "internalType": "bool",
          "name": "",
          "type": "bool"
        }
      ],
      "stateMutability": "view",
      "type": "function"
    },
    {
      "inputs": [
        {
          "internalType": "uint256",
          "name": "value",
          "type": "uint256"
        }
      ],
      "name": "lo2",
      "outputs": [
        {
          "internalType": "uint256",
          "name": "",
          "type": "uint256"
        }
      ],
      "stateMutability": "pure",
      "type": "function"
    },
    {
      "inputs": [
        {
          "internalType": "address",
          "name": "",
          "type": "address"
        },
        {
          "internalType": "uint256",
          "name": "",
          "type": "uint256"
        }
      ],
      "name": "myClaimed",
      "outputs": [
        {
          "internalType": "bool",
          "name": "",
          "type": "bool"
        }
      ],
      "stateMutability": "view",
      "type": "function"
    },
    {
      "inputs": [
        {
          "internalType": "address",
          "name": "",
          "type": "address"
        },
        {
          "internalType": "address",
          "name": "",
          "type": "address"
        },
        {
          "internalType": "uint256",
          "name": "",
          "type": "uint256"
        },
        {
          "internalType": "uint256",
          "name": "",
          "type": "uint256"
        },
        {
          "internalType": "bytes",
          "name": "",
          "type": "bytes"
        }
      ],
      "name": "onERC1155Received",
      "outputs": [
        {
          "internalType": "bytes4",
          "name": "",
          "type": "bytes4"
        }
      ],
      "stateMutability": "pure",
      "type": "function"
    },
    {
      "inputs": [
        {
          "internalType": "address",
          "name": "",
          "type": "address"
        },
        {
          "internalType": "address",
          "name": "",
          "type": "address"
        },
        {
          "internalType": "uint256",
          "name": "",
          "type": "uint256"
        },
        {
          "internalType": "bytes",
          "name": "",
          "type": "bytes"
        }
      ],
      "name": "onERC721Received",
      "outputs": [
        {
          "internalType": "bytes4",
          "name": "",
          "type": "bytes4"
        }
      ],
      "stateMutability": "nonpayable",
      "type": "function"
    },
    {
      "inputs": [
        {
          "internalType": "uint256",
          "name": "index",
          "type": "uint256"
        }
      ],
      "name": "playerClaim",
      "outputs": [],
      "stateMutability": "nonpayable",
      "type": "function"
    },
    {
      "inputs": [
        {
          "internalType": "uint256",
          "name": "",
          "type": "uint256"
        }
      ],
      "name": "pools",
      "outputs": [
        {
          "internalType": "address",
          "name": "provider",
          "type": "address"
        },
        {
          "internalType": "address",
          "name": "token0",
          "type": "address"
        },
        {
          "internalType": "address",
          "name": "token1",
          "type": "address"
        },
        {
          "internalType": "uint256",
          "name": "amount1",
          "type": "uint256"
        },
        {
          "internalType": "uint256",
          "name": "nftType",
          "type": "uint256"
        },
        {
          "internalType": "uint256",
          "name": "maxPlayer",
          "type": "uint256"
        },
        {
          "internalType": "uint256",
          "name": "closeAt",
          "type": "uint256"
        },
        {
          "internalType": "uint256",
          "name": "revealAt",
          "type": "uint256"
        }
      ],
      "stateMutability": "view",
      "type": "function"
    },
    {
      "inputs": [
        {
          "internalType": "uint256",
          "name": "",
          "type": "uint256"
        }
      ],
      "name": "poolsExt",
      "outputs": [
        {
          "internalType": "uint256",
          "name": "lastHash",
          "type": "uint256"
        },
        {
          "internalType": "uint256",
          "name": "nShare",
          "type": "uint256"
        }
      ],
      "stateMutability": "view",
      "type": "function"
    },
    {
      "inputs": [],
      "name": "renounceGovernorship",
      "outputs": [],
      "stateMutability": "nonpayable",
      "type": "function"
    },
    {
      "inputs": [
        {
          "internalType": "bytes32",
          "name": "key",
          "type": "bytes32"
        },
        {
          "internalType": "uint256",
          "name": "value",
          "type": "uint256"
        }
      ],
      "name": "setConfig",
      "outputs": [],
      "stateMutability": "nonpayable",
      "type": "function"
    },
    {
      "inputs": [
        {
          "internalType": "bytes32",
          "name": "key",
          "type": "bytes32"
        },
        {
          "internalType": "address",
          "name": "addr",
          "type": "address"
        },
        {
          "internalType": "uint256",
          "name": "value",
          "type": "uint256"
        }
      ],
      "name": "setConfig",
      "outputs": [],
      "stateMutability": "nonpayable",
      "type": "function"
    },
    {
      "inputs": [
        {
          "internalType": "bytes32",
          "name": "key",
          "type": "bytes32"
        },
        {
          "internalType": "uint256",
          "name": "index",
          "type": "uint256"
        },
        {
          "internalType": "uint256",
          "name": "value",
          "type": "uint256"
        }
      ],
      "name": "setConfig",
      "outputs": [],
      "stateMutability": "nonpayable",
      "type": "function"
    },
    {
      "inputs": [
        {
          "internalType": "address",
          "name": "",
          "type": "address"
        },
        {
          "internalType": "uint256",
          "name": "",
          "type": "uint256"
        }
      ],
      "name": "teamClaimed",
      "outputs": [
        {
          "internalType": "bool",
          "name": "",
          "type": "bool"
        }
      ],
      "stateMutability": "view",
      "type": "function"
    },
    {
      "inputs": [
        {
          "internalType": "address",
          "name": "newGovernor",
          "type": "address"
        }
      ],
      "name": "transferGovernorship",
      "outputs": [],
      "stateMutability": "nonpayable",
      "type": "function"
    }
  ],
  "bytecode": "0x608060405234801561001057600080fd5b50613332806100206000396000f3fe6080604052600436106101e35760003560e01c80638eec5d7011610102578063c4d66de811610095578063e471039011610064578063e47103901461059b578063ea29ae58146105bb578063f23a6e61146105db578063fc0cdf76146105fb576101e3565b8063c4d66de81461051b578063ca0262bd1461053b578063d86ccc551461055b578063ddf2be3f1461057b576101e3565b8063b21544f3116100d1578063b21544f31461048e578063b5c62211146104ae578063b6aa515b146104db578063bdd415af146104fb576101e3565b80638eec5d7014610405578063946d92041461041a578063958b3bd31461043a578063ac4afa381461045a576101e3565b80633c2d12711161017a5780636dd5b69d116101495780636dd5b69d1461039d5780637365870b146103bd57806381c0c263146103d05780638ec872e3146103e5576101e3565b80633c2d12711461031d5780634cdf9c2e1461033d57806352665f471461035d578063613fd5841461037d576101e3565b80631e113dd6116101b65780631e113dd6146102825780631eb9a5b7146102b0578063379607f5146102dd5780633b9dce05146102fd576101e3565b8063085c117b146101e85780630c340a241461020a578063150b7a021461023557806315fe96dc14610262575b600080fd5b3480156101f457600080fd5b50610208610203366004612826565b61061b565b005b34801561021657600080fd5b5061021f610aaa565b60405161022c9190612a9c565b60405180910390f35b34801561024157600080fd5b50610255610250366004612647565b610ab9565b60405161022c9190612b77565b34801561026e57600080fd5b5061020861027d3660046128a2565b610aca565b34801561028e57600080fd5b506102a261029d366004612826565b610aef565b60405161022c929190613266565b3480156102bc57600080fd5b506102d06102cb366004612826565b610b08565b60405161022c919061325d565b3480156102e957600080fd5b506102086102f8366004612826565b610b1a565b34801561030957600080fd5b5061020861031836600461262c565b610f33565b34801561032957600080fd5b506102d0610338366004612826565b610f84565b34801561034957600080fd5b506102d06103583660046129f7565b610f96565b34801561036957600080fd5b506102d061037836600461283e565b610fb3565b34801561038957600080fd5b506102086103983660046128ee565b610fd5565b3480156103a957600080fd5b506102d06103b8366004612826565b61150a565b6102086103cb366004612826565b61151f565b3480156103dc57600080fd5b50610208611813565b3480156103f157600080fd5b506102d06104003660046128a2565b611874565b34801561041157600080fd5b506102d0611887565b34801561042657600080fd5b50610208610435366004612730565b61188d565b34801561044657600080fd5b506102d06104553660046129f7565b61191b565b34801561046657600080fd5b5061047a610475366004612826565b611b42565b60405161022c989796959493929190612b0c565b34801561049a57600080fd5b506102086104a936600461286d565b611ba3565b3480156104ba57600080fd5b506104ce6104c93660046129f7565b611bcf565b60405161022c9190612b6c565b3480156104e757600080fd5b506102086104f636600461262c565b611bef565b34801561050757600080fd5b506104ce6105163660046129f7565b611c12565b34801561052757600080fd5b5061020861053636600461262c565b611d9a565b34801561054757600080fd5b506104ce6105563660046127dc565b611e6c565b34801561056757600080fd5b506102d0610576366004612826565b611e8c565b34801561058757600080fd5b506102086105963660046128c3565b611f46565b3480156105a757600080fd5b506104ce6105b63660046127dc565b611f69565b3480156105c757600080fd5b506102d06105d63660046128a2565b611f89565b3480156105e757600080fd5b506102556105f63660046126b6565b6120c8565b34801561060757600080fd5b506104ce61061636600461262c565b6120da565b603554819081106106475760405162461bcd60e51b815260040161063e90612d49565b60405180910390fd5b81426035828154811061065657fe5b90600052602060002090600a02016009015411156106865760405162461bcd60e51b815260040161063e90612d12565b61068e612473565b6035848154811061069b57fe5b60009182526020918290206040805161014081018252600a90930290910180546001600160a01b03908116845260018201541683850152600281018054835181870281018701855281815294959294938601939283018282801561071e57602002820191906000526020600020905b81548152602001906001019080831161070a575b505050505081526020016003820180548060200260200160405190810160405280929190818152602001828054801561077657602002820191906000526020600020905b815481526020019060010190808311610762575b505050918352505060048201546001600160a01b031660208083019190915260058301546040808401919091526006840154606084015260078401546080840152600884015460a084015260099093015460c09092019190915260008781526036825282812033825290915220549091506108035760405162461bcd60e51b815260040161063e90612e2c565b600084815260376020908152604080832033845290915290205460ff161561083d5760405162461bcd60e51b815260040161063e90612c43565b6000848152603760209081526040808320338085529252909120805460ff1916600117905561086d908590611c12565b15610a095760c0810151610948576000848152603a6020818152604080842080546001808201928390556038855292909520909101549290915211156108c55760405162461bcd60e51b815260040161063e90613141565b81602001516001600160a01b03166342842e0e3033856040015185815181106108ea57fe5b60200260200101516040518463ffffffff1660e01b815260040161091093929190612ab0565b600060405180830381600087803b15801561092a57600080fd5b505af115801561093e573d6000803e3d6000fd5b5050505050610a09565b80602001516001600160a01b031663f242432a3033846040015160008151811061096e57fe5b60200260200101516109b7603860008b81526020019081526020016000206001015487606001516000815181106109a157fe5b60200260200101516120ef90919063ffffffff16565b6040518563ffffffff1660e01b81526004016109d69493929190612ad4565b600060405180830381600087803b1580156109f057600080fd5b505af1158015610a04573d6000803e3d6000fd5b505050505b60808101516001600160a01b0316610a515760a0810151604051339180156108fc02916000818181858888f19350505050158015610a4b573d6000803e3d6000fd5b50610a77565b610a77338260a0015183608001516001600160a01b03166121389092919063ffffffff16565b604051339085907f4228543366bd898710e3604e936eb5961d7c1b3dc25b1a712a4d678c11b490aa90600090a350505050565b6033546001600160a01b031681565b630a85bd0160e11b95945050505050565b6033546001600160a01b03163314610ae157600080fd5b610aeb828261218e565b5050565b6038602052600090815260409020805460019091015482565b603a6020526000908152604090205481565b60355481908110610b3d5760405162461bcd60e51b815260040161063e90612d49565b814260358281548110610b4c57fe5b90600052602060002090600a0201600901541115610b7c5760405162461bcd60e51b815260040161063e90612d12565b610b84612473565b60358481548110610b9157fe5b60009182526020918290206040805161014081018252600a90930290910180546001600160a01b039081168452600182015416838501526002810180548351818702810187018552818152949592949386019392830182828015610c1457602002820191906000526020600020905b815481526020019060010190808311610c00575b5050505050815260200160038201805480602002602001604051908101604052809291908181526020018280548015610c6c57602002820191906000526020600020905b815481526020019060010190808311610c58575b505050918352505060048201546001600160a01b0390811660208084019190915260058401546040808501919091526006850154606085015260078501546080850152600885015460a085015260099094015460c0909301929092528351166000908152603b8252828120888252909152205490915060ff1615610d025760405162461bcd60e51b815260040161063e90612de2565b80516001600160a01b03166000908152603b602090815260408083208784528252808320805460ff19166001908117909155603883528184200154603990925290912054811115610eff5760c0820151610e37576000858152603a60205260409020805460010190819055811015610d8c5760405162461bcd60e51b815260040161063e90613141565b6000858152603a60205260409020545b81811015610e315782602001516001600160a01b03166342842e0e30856000015186604001518581518110610dcd57fe5b60200260200101516040518463ffffffff1660e01b8152600401610df393929190612ab0565b600060405180830381600087803b158015610e0d57600080fd5b505af1158015610e21573d6000803e3d6000fd5b505060019092019150610d9c9050565b50610eff565b81602001516001600160a01b031663f242432a3084600001518560400151600081518110610e6157fe5b6020026020010151610ead610e92603960008d815260200190815260200160002054886121b590919063ffffffff16565b610ea7888a606001516000815181106109a157fe5b906121f7565b6040518563ffffffff1660e01b8152600401610ecc9493929190612ad4565b600060405180830381600087803b158015610ee657600080fd5b505af1158015610efa573d6000803e3d6000fd5b505050505b604051339086907f6aa3eac93d079e5e100b1029be716caa33586c96aa4baac390669fb5c2a2121290600090a35050505050565b60335433906001600160a01b03168114610f5f5760405162461bcd60e51b815260040161063e90612bf6565b506001600160a01b03166000908152603d60205260409020805460ff19166001179055565b60396020526000908152604090205481565b603660209081526000928352604080842090915290825290205481565b6001600160a01b03811682186000908152603460205260409020545b92915050565b336000818152603d602052604090205460ff166110045760405162461bcd60e51b815260040161063e90612e03565b60a08201516110255760405162461bcd60e51b815260040161063e90612ca4565b6101008201516110475760405162461bcd60e51b815260040161063e90612f7f565b8160e0015182610100015111156110705760405162461bcd60e51b815260040161063e90612ee8565b620100008260e00151106110965760405162461bcd60e51b815260040161063e90613052565b81610120015142106110ba5760405162461bcd60e51b815260040161063e90612f1f565b816101400151826101200151106110e35760405162461bcd60e51b815260040161063e90612c7a565b60355460c08301516111df5782610100015183604001515110156111195760405162461bcd60e51b815260040161063e906130d3565b6060830151511561113c5760405162461bcd60e51b815260040161063e90612bbf565b60005b8360400151518110156111d95783602001516001600160a01b03166342842e0e8560000151308760400151858151811061117557fe5b60200260200101516040518463ffffffff1660e01b815260040161119b93929190612ab0565b600060405180830381600087803b1580156111b557600080fd5b505af11580156111c9573d6000803e3d6000fd5b50506001909201915061113f9050565b50611303565b8260400151516001146112045760405162461bcd60e51b815260040161063e90612fb6565b8260600151516001146112295760405162461bcd60e51b815260040161063e90612bbf565b826101000151836060015160008151811061124057fe5b602002602001015110156112665760405162461bcd60e51b815260040161063e906130d3565b82602001516001600160a01b031663f242432a846000015130866040015160008151811061129057fe5b602002602001015187606001516000815181106112a957fe5b60200260200101516040518563ffffffff1660e01b81526004016112d09493929190612ad4565b600060405180830381600087803b1580156112ea57600080fd5b505af11580156112fe573d6000803e3d6000fd5b505050505b61130b612473565b83516001600160a01b03908116825260208086015182168184019081526040808801519085019081526060808901519086015260808089015185169086015260a0808901519086015260c0808901519086015260e080890151908601526101208089015161010087015261014089015190860152603580546001810182556000919091528551600a9091027fcfa4bec1d3298408bb5afcfcd9c430549c5b31f8aa5c5848151c0a55f473c34d810180549287166001600160a01b031993841617815593517fcfa4bec1d3298408bb5afcfcd9c430549c5b31f8aa5c5848151c0a55f473c34e820180549190971692169190911790945551805185949293611436937fcfa4bec1d3298408bb5afcfcd9c430549c5b31f8aa5c5848151c0a55f473c34f019201906124e1565b50606082015180516114529160038401916020909101906124e1565b5060808201516004820180546001600160a01b0319166001600160a01b0390921691909117905560a0820151600582015560c0820151600682015560e0820151600782015561010080830151600883015561012090920151600990910155840151600083815260386020526040908190206001019190915551339083907f5c7dafc6919955969d7b800a371a6472c352c9bf507947279e1fa3cfd826538a906114fc9085906131a2565b60405180910390a350505050565b6000818152603460205260409020545b919050565b80426035828154811061152e57fe5b90600052602060002090600a0201600801541161155d5760405162461bcd60e51b815260040161063e90612db5565b611565612473565b6035838154811061157257fe5b60009182526020918290206040805161014081018252600a90930290910180546001600160a01b0390811684526001820154168385015260028101805483518187028101870185528181529495929493860193928301828280156115f557602002820191906000526020600020905b8154815260200190600101908083116115e1575b505050505081526020016003820180548060200260200160405190810160405280929190818152602001828054801561164d57602002820191906000526020600020905b815481526020019060010190808311611639575b505050918352505060048201546001600160a01b031660208083019190915260058301546040808401919091526006840154606084015260078401546080840152600884015460a084015260099093015460c0909201919091526000868152603682528281203382529091522054909150156116db5760405162461bcd60e51b815260040161063e90612fed565b60e08101516000848152603960205260409020541061170c5760405162461bcd60e51b815260040161063e9061301b565b60808101516001600160a01b0316611747578060a001513410156117425760405162461bcd60e51b815260040161063e90612f48565b61176f565b61176f33308360a0015184608001516001600160a01b0316612231909392919063ffffffff16565b600083815260396020818152604080842080546036845282862033875284528286206001918201905594889052928252825490930190915590516117be91429144916000194301409101612a86565b60408051601f1981840301815282825280516020918201206000878152603890925291812091909155339185917fc0cf6f6539dd26a13b724325f9d675aeb7686003595f761a617b892522d0c98c91a3505050565b6033546001600160a01b0316331461182a57600080fd5b6033546040516000916001600160a01b0316907fc7c0c772add429241571afb3805861fb3cfa2af374534088b76cdb4325a87e9a908390a3603380546001600160a01b0319169055565b1860009081526034602052604090205490565b60355490565b6033546001600160a01b03163314806118af57506033546001600160a01b0316155b6118cb5760405162461bcd60e51b815260040161063e90612bf6565b603380546001600160a01b0319166001600160a01b03841617905560005b81518110156119165761190e82828151811061190157fe5b6020026020010151610f33565b6001016118e9565b505050565b6035546000908311156119405760405162461bcd60e51b815260040161063e90612d49565b611948612473565b6035848154811061195557fe5b60009182526020918290206040805161014081018252600a90930290910180546001600160a01b0390811684526001820154168385015260028101805483518187028101870185528181529495929493860193928301828280156119d857602002820191906000526020600020905b8154815260200190600101908083116119c4575b5050505050815260200160038201805480602002602001604051908101604052809291908181526020018280548015611a3057602002820191906000526020600020905b815481526020019060010190808311611a1c575b505050918352505060048201546001600160a01b039081166020830152600583015460408301526006830154606083015260078301546080830152600883015460a083015260099092015460c090910152815191925084811691161415611ad1576001600160a01b0383166000908152603b6020908152604080832087845290915290205460ff1615611ac7576005915050610fcf565b6001915050610fcf565b60008481526036602090815260408083206001600160a01b038716845290915290205415611b385760008481526037602090815260408083206001600160a01b038716845290915290205460ff1615611b2e576006915050610fcf565b6002915050610fcf565b5060009392505050565b60358181548110611b4f57fe5b60009182526020909120600a9091020180546001820154600483015460058401546006850154600786015460088701546009909701546001600160a01b039687169850948616969390951694919390929088565b6033546001600160a01b03163314611bba57600080fd5b6119166001600160a01b03831684188261218e565b603760209081526000928352604080842090915290825290205460ff1681565b6033546001600160a01b03163314611c0657600080fd5b611c0f81612258565b50565b60004260358481548110611c2257fe5b90600052602060002090600a0201600801541115611c525760405162461bcd60e51b815260040161063e9061316b565b60008381526036602090815260408083206001600160a01b0386168452909152902054611c8157506000610fcf565b600083815260386020908152604080832060010154603990925290912054818111611cb157600192505050610fcf565b600085815260386020526040812054829081611cc957fe5b60008881526036602090815260408083206001600160a01b038b16845290915281205492909106925090611d01906000190184611f89565b90508183611d0f82876122c7565b81611d1657fe5b061115611d4557818110158015611d2e575083820181105b15611d40576001945050505050610fcf565b611d8d565b818110158015611d5457508281105b15611d66576001945050505050610fcf565b82611d7183866122c7565b81611d7857fe5b06811015611d8d576001945050505050610fcf565b5060009695505050505050565b600054610100900460ff1680611db35750611db36122ec565b80611dc1575060005460ff16155b611ddd5760405162461bcd60e51b815260040161063e90612e9a565b600054610100900460ff16158015611e08576000805460ff1961ff0019909116610100171660011790555b603380546001600160a01b0319166001600160a01b0384811691909117918290556040519116906000907fc7c0c772add429241571afb3805861fb3cfa2af374534088b76cdb4325a87e9a908290a38015610aeb576000805461ff00191690555050565b603b60209081526000928352604080842090915290825290205460ff1681565b6000620100008210611eb05760405162461bcd60e51b815260040161063e90612c20565b60028211611ec05750600061151a565b8160031415611ed15750600261151a565b6000825b6001841115611eee57600193841c939190910190611ed5565b611ef98260026121b5565b6002901b611f088360016121b5565b6002901b01811115611f3357611f2a6001611f248460026121f7565b906122c7565b9250505061151a565b611f3e8260026121f7565b949350505050565b6033546001600160a01b03163314611f5d57600080fd5b6119168383188261218e565b603c60209081526000928352604080842090915290825290205460ff1681565b6000611f9361252c565b6040518061040001604052806003815260200160038152602001600581526020016007815260200160118152602001600b815260200160078152602001600b8152602001600d815260200160178152602001601f8152602001602f8152602001603d815260200160598152602001607f815260200160bf815260200160fb815260200161017f81526020016101fd81526020016102f981526020016103fd81526020016105fb81526020016107f78152602001610bfb8152602001610ffd81526020016117ff8152602001611fff8152602001612ff98152602001613ffd8152602001615ffb8152602001617fed815260200161bff38152509050600061209984611e8c565b9050836120b78383602081106120ab57fe5b602002015187906121f7565b816120be57fe5b0695945050505050565b63f23a6e6160e01b9695505050505050565b603d6020526000908152604090205460ff1681565b600061213183836040518060400160405280601a81526020017f536166654d6174683a206469766973696f6e206279207a65726f0000000000008152506122f2565b9392505050565b6119168363a9059cbb60e01b8484604051602401612157929190612b53565b60408051601f198184030181529190526020810180516001600160e01b03166001600160e01b031990931692909217909152612329565b6000828152603460205260409020548114610aeb5760009182526034602052604090912055565b600061213183836040518060400160405280601e81526020017f536166654d6174683a207375627472616374696f6e206f766572666c6f77000081525061240e565b60008261220657506000610fcf565b8282028284828161221357fe5b04146121315760405162461bcd60e51b815260040161063e90612e59565b612252846323b872dd60e01b85858560405160240161215793929190612ab0565b50505050565b6001600160a01b03811661226b57600080fd5b6033546040516001600160a01b038084169216907fc7c0c772add429241571afb3805861fb3cfa2af374534088b76cdb4325a87e9a90600090a3603380546001600160a01b0319166001600160a01b0392909216919091179055565b6000828201838110156121315760405162461bcd60e51b815260040161063e90612cdb565b303b1590565b600081836123135760405162461bcd60e51b815260040161063e9190612b8c565b50600083858161231f57fe5b0495945050505050565b61233b826001600160a01b031661243a565b6123575760405162461bcd60e51b815260040161063e9061310a565b60006060836001600160a01b0316836040516123739190612a6a565b6000604051808303816000865af19150503d80600081146123b0576040519150601f19603f3d011682016040523d82523d6000602084013e6123b5565b606091505b5091509150816123d75760405162461bcd60e51b815260040161063e90612d80565b80511561225257808060200190518101906123f29190612806565b6122525760405162461bcd60e51b815260040161063e90613089565b600081848411156124325760405162461bcd60e51b815260040161063e9190612b8c565b505050900390565b6000813f7fc5d2460186f7233c927e7db2dcc703c0e500b653ca82273b7bfad8045d85a470818114801590611f3e575050151592915050565b60405180610140016040528060006001600160a01b0316815260200160006001600160a01b03168152602001606081526020016060815260200160006001600160a01b0316815260200160008152602001600081526020016000815260200160008152602001600081525090565b82805482825590600052602060002090810192821561251c579160200282015b8281111561251c578251825591602001919060010190612501565b5061252892915061254b565b5090565b6040518061040001604052806020906020820280368337509192915050565b5b80821115612528576000815560010161254c565b80356001600160a01b0381168114610fcf57600080fd5b600082601f830112612587578081fd5b813561259a6125958261329b565b613274565b8181529150602080830190848101818402860182018710156125bb57600080fd5b60005b848110156125da578135845292820192908201906001016125be565b505050505092915050565b60008083601f8401126125f6578182fd5b50813567ffffffffffffffff81111561260d578182fd5b60208301915083602082850101111561262557600080fd5b9250929050565b60006020828403121561263d578081fd5b6121318383612560565b60008060008060006080868803121561265e578081fd5b6126688787612560565b94506126778760208801612560565b935060408601359250606086013567ffffffffffffffff811115612699578182fd5b6126a5888289016125e5565b969995985093965092949392505050565b60008060008060008060a087890312156126ce578081fd5b86356126d9816132e7565b955060208701356126e9816132e7565b94506040870135935060608701359250608087013567ffffffffffffffff811115612712578182fd5b61271e89828a016125e5565b979a9699509497509295939492505050565b60008060408385031215612742578182fd5b61274c8484612560565b915060208084013567ffffffffffffffff811115612768578283fd5b8401601f81018613612778578283fd5b80356127866125958261329b565b81815283810190838501858402850186018a10156127a2578687fd5b8694505b838510156127cc576127b88a82612560565b8352600194909401939185019185016127a6565b5080955050505050509250929050565b600080604083850312156127ee578182fd5b6127f88484612560565b946020939093013593505050565b600060208284031215612817578081fd5b81518015158114612131578182fd5b600060208284031215612837578081fd5b5035919050565b60008060408385031215612850578182fd5b823591506020830135612862816132e7565b809150509250929050565b600080600060608486031215612881578283fd5b833592506128928560208601612560565b9150604084013590509250925092565b600080604083850312156128b4578182fd5b50508035926020909101359150565b6000806000606084860312156128d7578081fd5b505081359360208301359350604090920135919050565b6000602082840312156128ff578081fd5b813567ffffffffffffffff80821115612916578283fd5b818401915061016080838703121561292c578384fd5b61293581613274565b90506129418684612560565b81526129508660208501612560565b6020820152604083013582811115612966578485fd5b61297287828601612577565b604083015250606083013582811115612989578485fd5b61299587828601612577565b6060830152506129a88660808501612560565b608082015260a0838101359082015260c0808401359082015260e08084013590820152610100808401359082015261012080840135908201526101409283013592810192909252509392505050565b60008060408385031215612a09578182fd5b82359150612a1a8460208501612560565b90509250929050565b6001600160a01b03169052565b6000815180845260208085019450808401835b83811015612a5f57815187529582019590820190600101612a43565b509495945050505050565b60008251612a7c8184602087016132bb565b9190910192915050565b9283526020830191909152604082015260600190565b6001600160a01b0391909116815260200190565b6001600160a01b039384168152919092166020820152604081019190915260600190565b6001600160a01b0394851681529290931660208301526040820152606081019190915260a06080820181905260009082015260c00190565b6001600160a01b03988916815296881660208801529490961660408601526060850192909252608084015260a083015260c082019290925260e08101919091526101000190565b6001600160a01b03929092168252602082015260400190565b901515815260200190565b6001600160e01b031991909116815260200190565b6000602082528251806020840152612bab8160408501602087016132bb565b601f01601f19169190910160400192915050565b6020808252601e908201527f696e76616c6964206c656e677468206f6620616d6f756e74546f74616c300000604082015260600190565b60208082526010908201526f34b73b30b634b21033b7bb32b93737b960811b604082015260600190565b602080825260099082015268746f6f206c6172676560b81b604082015260600190565b6020808252601a908201527f596f75206861766520636c61696d6564207468697320706f6f6c000000000000604082015260600190565b60208082526010908201526f1a5b9d985b1a59081c995d99585b105d60821b604082015260600190565b6020808252601c908201527f7468652076616c7565206f6620616d6f756e7431206973207a65726f00000000604082015260600190565b6020808252601b908201527f536166654d6174683a206164646974696f6e206f766572666c6f770000000000604082015260600190565b60208082526019908201527f7468697320706f6f6c206973206e6f742072657665616c656400000000000000604082015260600190565b60208082526018908201527f7468697320706f6f6c20646f6573206e6f742065786973740000000000000000604082015260600190565b6020808252818101527f5361666545524332303a206c6f772d6c6576656c2063616c6c206661696c6564604082015260600190565b6020808252601390820152721d1a1a5cc81c1bdbdb081a5cc818db1bdcd959606a1b604082015260600190565b60208082526007908201526618db185a5b595960ca1b604082015260600190565b6020808252600f908201526e34b73b30b634b21031b932b0ba37b960891b604082015260600190565b602080825260139082015272165bdd481a185d995b89dd0818995d081e595d606a1b604082015260600190565b60208082526021908201527f536166654d6174683a206d756c7469706c69636174696f6e206f766572666c6f6040820152607760f81b606082015260800190565b6020808252602e908201527f436f6e747261637420696e7374616e63652068617320616c726561647920626560408201526d195b881a5b9a5d1a585b1a5e995960921b606082015260800190565b6020808252601b908201527f6d617820706c61796572206c657373207468616e206e53686172650000000000604082015260600190565b6020808252600f908201526e1a5b9d985b1a590818db1bdcd9505d608a1b604082015260600190565b60208082526019908201527f5468652062657420616d6f756e7420697320746f6f206c6f7700000000000000604082015260600190565b6020808252601b908201527f7468652076616c7565206f66206e5368617265206973207a65726f0000000000604082015260600190565b6020808252601a908201527f696e76616c6964206c656e677468206f6620746f6b656e496430000000000000604082015260600190565b602080825260149082015273165bdd481a185d9948185b1c9958591e4818995d60621b604082015260600190565b60208082526017908201527f7265616368656420746865207570706572206c696d6974000000000000000000604082015260600190565b6020808252601a908201527f6d617820706c61796572206d757374206c657373203635353336000000000000604082015260600190565b6020808252602a908201527f5361666545524332303a204552433230206f7065726174696f6e20646964206e6040820152691bdd081cdd58d8d9595960b21b606082015260800190565b6020808252601d908201527f616d6f756e74546f74616c30206c657373207468616e206e5368617265000000604082015260600190565b6020808252601f908201527f5361666545524332303a2063616c6c20746f206e6f6e2d636f6e747261637400604082015260600190565b60208082526010908201526f657863656564206d617820636c61696d60801b604082015260600190565b60208082526017908201527f7468697320706f6f6c206973206e6f7420636c6f736564000000000000000000604082015260600190565b6000602082526131b6602083018451612a23565b60208301516131c86040840182612a23565b5060408301516101408060608501526131e5610160850183612a30565b91506060850151601f198584030160808601526132028382612a30565b925050608085015161321760a0860182612a23565b5060a085015160c085015260c085015160e085015260e0850151610100818187015280870151915050610120818187015280870151838701525050508091505092915050565b90815260200190565b918252602082015260400190565b60405181810167ffffffffffffffff8111828210171561329357600080fd5b604052919050565b600067ffffffffffffffff8211156132b1578081fd5b5060209081020190565b60005b838110156132d65781810151838201526020016132be565b838111156122525750506000910152565b6001600160a01b0381168114611c0f57600080fdfea2646970667358221220b4ef74b6e10673e82f232215a75f8a3df720848b614814ddb3ecbbd5b7b9530564736f6c634300060c0033",
  "linkReferences": {},
  "deployedLinkReferences": {}
}